{
  "contractName": "Shopping",
  "abi": [
    {
      "constant": true,
      "inputs": [
        {
          "name": "",
          "type": "uint256"
        }
      ],
      "name": "students",
      "outputs": [
        {
          "name": "",
          "type": "address"
        }
      ],
      "payable": false,
      "stateMutability": "view",
      "type": "function"
    },
    {
      "constant": false,
      "inputs": [
        {
          "name": "productId",
          "type": "uint256"
        }
      ],
      "name": "shop",
      "outputs": [
        {
          "name": "",
          "type": "uint256"
        }
      ],
      "payable": false,
      "stateMutability": "nonpayable",
      "type": "function"
    },
    {
      "constant": true,
      "inputs": [],
      "name": "getStudents",
      "outputs": [
        {
          "name": "",
          "type": "address[16]"
        }
      ],
      "payable": false,
      "stateMutability": "view",
      "type": "function"
    }
  ],
  "bytecode": "0x608060405234801561001057600080fd5b506102b0806100206000396000f3fe608060405234801561001057600080fd5b50600436106100415760003560e01c806306ead22e14610046578063da69c083146100b4578063f1d064b3146100f6575b600080fd5b6100726004803603602081101561005c57600080fd5b810190808035906020019092919050505061013c565b604051808273ffffffffffffffffffffffffffffffffffffffff1673ffffffffffffffffffffffffffffffffffffffff16815260200191505060405180910390f35b6100e0600480360360208110156100ca57600080fd5b810190808035906020019092919050505061016f565b6040518082815260200191505060405180910390f35b6100fe6101e0565b6040518082601060200280838360005b8381101561012957808201518184015260208101905061010e565b5050505090500191505060405180910390f35b6000816010811061014957fe5b016000915054906101000a900473ffffffffffffffffffffffffffffffffffffffff1681565b60008082101580156101825750600f8211155b61018b57600080fd5b336000836010811061019957fe5b0160006101000a81548173ffffffffffffffffffffffffffffffffffffffff021916908373ffffffffffffffffffffffffffffffffffffffff160217905550819050919050565b6101e8610261565b6000601080602002604051908101604052809291908260108015610257576020028201915b8160009054906101000a900473ffffffffffffffffffffffffffffffffffffffff1673ffffffffffffffffffffffffffffffffffffffff168152602001906001019080831161020d575b5050505050905090565b60405180610200016040528060109060208202803883398082019150509050509056fea165627a7a72305820bc25c5782de186653a67ca004e3fafb153c913c01bba7ee85f4b0886eb198f1e0029",
  "source": "pragma solidity ^0.5.0;\r\n\r\ncontract Shopping {\r\n  address[16] public students;\r\n\r\n\t// Adopting a pet\r\n\tfunction shop(uint productId) public returns (uint) {\r\n\t  require(productId >= 0 && productId <= 15);\r\n\r\n\t  students[productId] = msg.sender;\r\n\r\n\t  return productId;\r\n\t}\r\n\t//retrieving the students list\r\n\tfunction getStudents() public view returns (address[16] memory) {\r\n\t    return students;\r\n\t}\r\n\r\n}",
  "sourcePath": "C:/Users/varsh/Documents/College/FAll2019/web/cal-state-coin-tutorial/contracts/Shopping.sol",
  "compiler": {
    "name": "solc",
    "version": "0.5.8+commit.23d335f2.Emscripten.clang"
  },
  "schemaVersion": "3.0.16",
  "updatedAt": "2019-11-14T19:50:13.690Z",
  "devdoc": {
    "methods": {}
  },
  "userdoc": {
    "methods": {}
  }
}